:100000000C9434000C94DC010C94C5010C94510048
:100010000C9451000C9451000C9451000C9451001C
:100020000C9451000C9451000C9451000C9451000C
:100030000C9451000C94F8010C9451000C94510054
:100040000C9451000C9451000C9477010C945100C5
:100050000C9451000C9451000C9451000C945100DC
:100060000C9451000C94510011241FBECFEFD8E026
:10007000DEBFCDBF11E0A0E0B1E0EEE7FCE002C0E2
:1000800005900D92A233B107D9F721E0A2E3B1E0C8
:1000900001C01D92A036B207E1F70E94C2040C9481
:1000A0003D060C9400000F931F93CF93DF93CDB7C1
:1000B000DEB769970FB6F894DEBF0FBECDBF8C01D7
:1000C0008DE0E8E0F1E0DE01119601900D928A9555
:1000D000E1F78CE0E5E1F1E0DE011E9601900D9282
:1000E0008A95E1F764E071E0C8010E942D06892B32
:1000F00039F066E071E0C8010E942D06892B29F4D1
:10010000B8018BE591E00E94360662E071E0C8011B
:100110000E942D06892B71F464E071E08BE591E07B
:100120000E942D06892B31F4B80181E491E00E94F0
:10013000360605C0B80186E491E00E94360664E008
:1001400071E08BE591E00E942D06892BC1F580912D
:100150003D0190913E01019751F110925101109291
:100160005001A0E0B0E0E0ECF0E09E012F5F3F4FD7
:1001700046EC50E001C0DC01808185FFFDCFA20F7D
:10018000B31F8C91DA018C938091500190915101B1
:1001900001969093510180935001D9010D90002058
:1001A000E9F71197A21BB30BA817B90720F7109214
:1001B0007A0081E090E090933E0180933D0166E0FB
:1001C00071E08BE591E00E942D06892BC9F58091A5
:1001D0003D0190913E01029751F110925101109210
:1001E0005001A0E0B0E0E0ECF0E09E01225F3F4F64
:1001F00046EC50E001C0DC01808185FFFDCFA20FFD
:10020000B31F8C91DA018C93809150019091510130
:1002100001969093510180935001D9010D900020D7
:10022000E9F71197A21BB30BA817B90720F783E8CA
:1002300080937A0082E090E090933E0180933D01AC
:1002400064E071E08BE591E00E942D06892B99F521
:100250002091460130E02053310944E6429FC0011D
:10026000439F900D11242091470130E02053310924
:10027000A901440F551F220F331F220F331F220FD6
:10028000331F240F351F820F931F4091480150E008
:1002900040535109840F951F8536910564F4AA27B0
:1002A00097FDA095BA2F8093520190935301A0938C
:1002B0005401B093550169960FB6F894DEBF0FBE96
:1002C000CDBFDF91CF911F910F9108954F9909C034
:1002D0002FEF80E792E0215080409040E1F700C08E
:1002E000000089B18095881F8827881F08951F9274
:1002F0000F920FB60F9211242F933F934F935F935A
:100300006F937F938F939F93AF93BF93EF93FF93DD
:100310002091C600243241F481E080933201109292
:100320003A01109239011CC080ED820F8A3070F4BE
:100330008091390190913A01FC01EA5AFE4F2083E5
:10034000019690933A01809339010AC010923A01C4
:1003500010923901209356011092570110925801C2
:1003600086E591E00E945300FF91EF91BF91AF911C
:100370009F918F917F916F915F914F913F912F91BD
:100380000F900FBE0F901F9018951F920F920FB6EF
:100390000F9211248F939F9385B115B88FE891E048
:1003A0000197F1F700C00000299A9F918F910F905B
:1003B0000FBE0F901F9018951F920F920FB60F92BD
:1003C00011248F939F9385B115B88FE891E0019721
:1003D000F1F700C00000289A9F918F910F900FBEF7
:1003E0000F901F9018958EBD0DB407FEFDCF089598
:1003F0001F920F920FB60F9211242F933F934F939A
:100400005F936F937F938F939F93AF93BF93EF937C
:10041000FF93EAE7F0E0808180648083808186FD3D
:10042000FDCF66E071E08BE591E00E942D06892BFF
:10043000B1F42091780030917900A4E6B0E00E94F8
:10044000F1052FEF33E040E050E00E94D205209309
:1004500052013093530140935401509355016091E0
:10046000520170915301809154019091550124E6FD
:1004700030E040E050E00E94D205309338012093F4
:10048000370115B885E08A95F1F7000083E090E028
:100490009093400180933F010E94F30185E08A958B
:1004A000F1F700008091370190913801909340015D
:1004B00080933F010E94F30184E085B985E08A952D
:1004C000F1F7000080913701805D8093C600E0EC79
:1004D000F0E0808185FFFDCF609152017091530162
:1004E000809154019091550124E630E040E050E0C5
:1004F0000E94D20560934D018DEC689F612D1124FF
:10050000669566956695862F90E090933601809368
:10051000350115B885E08A95F1F7000082E090E09A
:100520009093400180933F010E94F30185E08A95FA
:10053000F1F70000809135019091360190934001D0
:1005400080933F010E94F30184E085B985E08A959C
:10055000F1F7000080913501805D8093C600E0ECEA
:10056000F0E0808185FFFDCF80914D019DEC899F5A
:10057000912D1124969596959695990F292F220FD6
:10058000220F920F891B90E09093340180933301E6
:1005900015B885E08A95F1F7000081E090E090932E
:1005A000400180933F010E94F30185E08A95F1F7B5
:1005B0000000809133019091340190934001809329
:1005C0003F010E94F30184E085B985E08A95F1F747
:1005D000000080913301805D8093C600E0ECF0E084
:1005E000808185FFFDCF8AE08093C600E0ECF0E0DB
:1005F000808185FFFDCF88E996E790938500809301
:100600008400209152013091530140915401509146
:100610005501A7ECB0E00E94000624E630E040E07F
:1006200050E00E94D20528BDFF91EF91BF91AF919C
:100630009F918F917F916F915F914F913F912F91FA
:100640000F900FBE0F901F90189515B885E08A95F2
:10065000F1F700008AE090E09093400180933F0121
:100660000E94F30185E08A95F1F7000010924001A5
:1006700010923F0180E090E00E94F30184E085B990
:1006800085E08A95F1F7000015B885E08A95F1F7C5
:10069000000089E090E09093400180933F010E9428
:1006A000F30185E08A95F1F700008FEF90E09093D9
:1006B000400180933F010E94F30184E085B985E009
:1006C0008A95F1F7000015B885E08A95F1F70000EA
:1006D0008BE090E09093400180933F010E94F301F2
:1006E00085E08A95F1F7000082E090E09093400168
:1006F00080933F010E94F30184E085B985E08A95EB
:10070000F1F7000015B885E08A95F1F700008CE05C
:1007100090E09093400180933F010E94F30185E0B7
:100720008A95F1F7000081E090E09093400180937A
:100730003F010E94F30184E085B985E08A95F1F7D5
:10074000000015B885E08A95F1F700008FE090E091
:100750009093400180933F010E94F30185E08A95C8
:10076000F1F700001092400110923F0180E090E00C
:100770000E94F30184E085B985E08A95F1F70000D5
:1007800015B885E08A95F1F7000081E090E090933C
:10079000400180933F010E94F30185E08A95F1F7C3
:1007A00000008FEF90E09093400180933F010E9402
:1007B000F30184E085B985E08A95F1F7000015B86A
:1007C00085E08A95F1F7000082E090E09093400187
:1007D00080933F010E94F30185E08A95F1F70000C4
:1007E0008FEF90E09093400180933F010E94F301CE
:1007F00084E085B985E08A95F1F7000015B885E0B9
:100800008A95F1F7000083E090E090934001809397
:100810003F010E94F30185E08A95F1F700008FEF18
:1008200090E09093400180933F010E94F30184E0A7
:1008300085B985E08A95F1F700000895CF92DF929F
:10084000EF92FF920F931F93CF93DF93CDB7DEB755
:1008500061970FB6F894DEBF0FBECDBF88E0E1E22E
:10086000F1E0DE01119601900D928A95E1F789E0A1
:10087000E9E2F1E0DE01199601900D928A95E1F727
:1008800080913B0190913C01019690933C018093B3
:100890003B01823091052CF010923C0110923B01FB
:1008A00038C0019781F5109251011092500180E0FB
:1008B00090E000EC10E09E012F5F3F4F79010F2E7A
:1008C000F6ECCF2ED12CF02DD8012C9125FFFCCFAA
:1008D000F701E80FF91F8081F60180830E9425034C
:1008E0008091500190915101019690935101809314
:1008F0005001F70101900020E9F73197EE19FF0947
:10090000E817F90708F780913B0190913C01892B8A
:1009100051F51092510110925001A0E0B0E0E0ECCE
:10092000F0E09E01275F3F4F46EC50E001C0DC0144
:10093000808185FFFDCFA20FB31F8C91DA018C93CC
:1009400080915001909151010196909351018093B3
:100950005001D9010D900020E9F71197A21BB30BAC
:10096000A817B90720F761960FB6F894DEBF0FBE3F
:10097000CDBFDF91CF911F910F91FF90EF90DF904E
:10098000CF90089566E071E08BE591E00E94360615
:10099000559A84B18F6284B98BB18C688BB92A9ACD
:1009A00021E024BD8AE085BD87EC87BD84E688BD53
:1009B00083E08DBB8BE0809369001092800084E01F
:1009C0008093810088E996E7909385008093840066
:1009D00020936F001092C00087E690E09093C500CE
:1009E0008093C40086E08093C20088E98093C100B0
:1009F00080E480937C0083E880937A0081E58CBD5D
:100A00000E94250378946894662465F80F2EF9E017
:100A1000AF2EB12CF02D6894772472F8CC24C394B7
:100A2000D12CC7E4D0E06894EE24E1F8F12C03E087
:100A300010E00F2EFEE78F2E912CF02D80913201C9
:100A4000813011F41092320166E071E08BE591E0A3
:100A50000E942D06892B49F40E946601813029F4F9
:100A600084B5862584BD0E941E0464E071E08BE598
:100A700091E00E942D06892B99F462E071E081E4F7
:100A800091E00E942D06892B59F484B5862584BDFA
:100A900060E071E081E491E00E9436060E941E044D
:100AA00080913B0190913C01892B09F071C015B8F0
:100AB00025E02A95F1F70000B0924001A0923F0195
:100AC000C5010E94F30185E08A95F1F700001092BC
:100AD000400110923F0180E090E00E94F30175B860
:100AE00095E09A95F1F7000015B825E02A95F1F701
:100AF0000000D0924001C0923F01C6010E94F30164
:100B000085E08A95F1F70000D0934001C0933F0142
:100B1000CE010E94F30175B895E09A95F1F70000B7
:100B200015B825E02A95F1F70000F0924001E09217
:100B30003F01C7010E94F30185E08A95F1F70000AB
:100B4000D0934001C0933F01CE010E94F30175B8DC
:100B500095E09A95F1F7000015B825E02A95F1F790
:100B600000001093400100933F01C8010E94F3016F
:100B700085E08A95F1F700009092400180923F0154
:100B8000C4010E94F30175B895E09A95F1F7000051
:100B90002FE788E391E0215080409040E1F700C0CA
:100BA00000004CCF052E97FB1EF400940E94E9052F
:100BB00057FD07D00E940B0607FC03D04EF40C949F
:100BC000E90550954095309521953F4F4F4F5F4F28
:100BD000089590958095709561957F4F8F4F9F4FA9
:100BE0000895A29FB001B39FC001A39F700D811D06
:100BF0001124911DB29F700D811D1124911D089526
:100C00000E94F105A59F900DB49F900DA49F800DAB
:100C1000911D11240895A1E21A2EAA1BBB1BFD01F0
:100C20000DC0AA1FBB1FEE1FFF1FA217B307E407CB
:100C3000F50720F0A21BB30BE40BF50B661F771F23
:100C4000881F991F1A9469F7609570958095909503
:100C50009B01AC01BD01CF010895FB01DC018D9129
:100C6000019080190110D9F3990B0895FB01DC0163
:0E0C700001900D920020E1F70895F894FFCF57
:100C7E0045004F0052004C004D6F646F2052656D61
:100C8E006F746F0A004D6F646F204C6F63616C0A56
:100C9E000050574D206F6E0A0050574D206F6666FC
:020CAE000A003A
:00000001FF
