:100000000C9434000C94DA010C94C3010C9451004C
:100010000C9451000C9451000C9451000C9451001C
:100020000C9451000C9451000C9451000C9451000C
:100030000C9451000C94F1010C9451000C9451005B
:100040000C9451000C9451000C9475010C945100C7
:100050000C9451000C9451000C9451000C945100DC
:100060000C9451000C94510011241FBECFEFD8E026
:10007000DEBFCDBF11E0A0E0B1E0ECE3F8E002C0EC
:1000800005900D92A233B107D9F721E0A2E3B1E0C8
:1000900001C01D92A635B207E1F70E9437030C9408
:1000A0001C040C9400000F931F93CF93DF93CDB7E4
:1000B000DEB769970FB6F894DEBF0FBECDBF8C01D7
:1000C0008DE0E8E0F1E0DE01119601900D928A9555
:1000D000E1F78CE0E5E1F1E0DE011E9601900D9282
:1000E0008A95E1F764E071E0C8010E940C04892B55
:1000F00039F066E071E0C8010E940C04892B29F4F4
:10010000B80181E591E00E94150462E071E0C80148
:100110000E940C04892B71F464E071E081E591E0A8
:100120000E940C04892B31F4B80189E391E00E940C
:10013000150405C0B8018EE391E00E94150464E047
:1001400071E081E591E00E940C04892BC1F580915A
:10015000370190913801019751F1109247011092A7
:100160004601A0E0B0E0E0ECF0E09E012F5F3F4FE1
:1001700046EC50E001C0DC01808185FFFDCFA20F7D
:10018000B31F8C91DA018C938091460190914701C5
:1001900001969093470180934601D9010D9000206C
:1001A000E9F71197A21BB30BA817B90720F7109214
:1001B0007A0081E090E0909338018093370166E007
:1001C00071E081E591E00E940C04892BC9F58091D2
:1001D000370190913801029751F110924701109226
:1001E0004601A0E0B0E0E0ECF0E09E01225F3F4F6E
:1001F00046EC50E001C0DC01808185FFFDCFA20FFD
:10020000B31F8C91DA018C93809146019091470144
:1002100001969093470180934601D9010D900020EB
:10022000E9F71197A21BB30BA817B90720F783E8CA
:1002300080937A0082E090E09093380180933701B8
:1002400064E071E081E591E00E940C04892B99F54E
:1002500020913E0130E02053310944E6429FC00125
:10026000439F900D112420913F0130E0205331092C
:10027000A901440F551F220F331F220F331F220FD6
:10028000331F240F351F820F931F4091400150E010
:1002900040535109840F951F8536910564F4AA27B0
:1002A00097FDA095BA2F8093480190934901A093A0
:1002B0004A01B0934B0169960FB6F894DEBF0FBEAA
:1002C000CDBFDF91CF911F910F910895189909C06B
:1002D0002FE788E391E0215080409040E1F700C093
:1002E000000083B18095817008951F920F920FB620
:1002F0000F9211242F933F934F935F936F937F93AC
:100300008F939F93AF93BF93EF93FF932091C6007A
:10031000243241F481E08093320110923401109232
:1003200033011CC080ED820F8A3070F4809133015C
:1003300090913401FC01E45BFE4F20830196909381
:100340003401809333010AC01092340110923301BA
:1003500020934C0110924D0110924E018CE491E0DB
:100360000E945300FF91EF91BF91AF919F918F91A8
:100370007F916F915F914F913F912F910F900FBEA1
:100380000F901F9018951F920F920FB60F92112485
:100390008F939F9385B115B88FE891E00197F1F79E
:1003A00000C000002D9A9F918F910F900FBE0F906B
:1003B0001F9018951F920F920FB60F9211248F93D2
:1003C0009F9385B115B88FE891E00197F1F700C0D0
:1003D00000002C9A9F918F910F900FBE0F901F904D
:1003E00018951F920F920FB60F9211242F933F93DF
:1003F0004F935F936F937F938F939F93AF93BF932D
:10040000EF93FF93EAE7F0E080818064808380814E
:1004100086FDFDCF66E071E081E591E00E940C046D
:10042000892BB1F42091780030917900A4E6B0E0F6
:100430000E94D0032FEF33E040E050E00E94B10370
:10044000209348013093490140934A0150934B0156
:10045000609148017091490180914A0190914B014E
:1004600024E630E040E050E00E94B103205D20939C
:10047000C600E0ECF0E0808185FFFDCF609148018F
:100480007091490180914A0190914B0124E630E03E
:1004900040E050E00E94B103609345018DEC689FFD
:1004A000612D1124669566956695605D6093C60022
:1004B000E0ECF0E0808185FFFDCF809145019DEC6F
:1004C000899F912D1124969596959695990F292F90
:1004D000220F220F920F891B805D8093C600E0ECF3
:1004E000F0E0808185FFFDCF8AE08093C600E0ECDC
:1004F000F0E0808185FFFDCF88E996E79093850045
:1005000080938400209148013091490140914A0133
:1005100050914B01A7ECB0E00E94DF0324E630E0ED
:1005200040E050E00E94B10328BDFF91EF91BF91E0
:10053000AF919F918F917F916F915F914F913F917B
:100540002F910F900FBE0F901F901895CF93DF93B0
:10055000CDB7DEB761970FB6F894DEBF0FBECDBF43
:1005600088E0E1E2F1E0DE01119601900D928A95BA
:10057000E1F789E0E9E2F1E0DE01199601900D92E0
:100580008A95E1F78091350190913601019690931B
:10059000360180933501823091052CF0109236019E
:1005A0001092350131C0019749F510924701109220
:1005B000460180E090E0E0ECF0E09E012F5F3F4FCD
:1005C00046EC50E0608165FFFDCFD901A80FB91F4F
:1005D0008C91DA018C9380914601909147010196AC
:1005E0009093470180934601D9010D900020E9F7CF
:1005F0001197A21BB30BA817B90720F780913501FB
:1006000090913601892B51F51092470110924601C5
:10061000A0E0B0E0E0ECF0E09E01275F3F4F46EC49
:1006200050E001C0DC01808185FFFDCFA20FB31F28
:100630008C91DA018C93809146019091470101964B
:100640009093470180934601D9010D900020E9F76E
:100650001197A21BB30BA817B90720F761960FB625
:10066000F894DEBF0FBECDBFDF91CF91089566E055
:1006700071E081E591E00E941504559A84B1886388
:1006800084B98BB18C608BB9289A21E024BD8AE0B3
:1006900085BD87EC87BD84E688BD83E08DBB8BE09C
:1006A000809369001092800084E08093810088E943
:1006B00096E7909385008093840020936F001092BA
:1006C000C00087E690E09093C5008093C40086E068
:1006D0008093C20088E98093C10080E480937C000D
:1006E00083E880937A007894C0E28091320181306F
:1006F00011F41092320166E071E081E591E00E9410
:100700000C04892B49F40E946601813029F484B5D8
:100710008C2784BD0E94A60264E071E081E591E02F
:100720000E940C04892B99F462E071E089E391E066
:100730000E940C04892B59F484B58C2784BD60E099
:1007400071E089E391E00E9415040E94A6022FEF58
:1007500084E39CE0215080409040E1F700C000001D
:10076000C4CF052E97FB1EF400940E94C80357FDCA
:1007700007D00E94EA0307FC03D04EF40C94C80390
:1007800050954095309521953F4F4F4F5F4F0895BD
:1007900090958095709561957F4F8F4F9F4F0895ED
:1007A000A29FB001B39FC001A39F700D811D1124B2
:1007B000911DB29F700D811D1124911D08950E94FD
:1007C000D003A59F900DB49F900DA49F800D911D07
:1007D00011240895A1E21A2EAA1BBB1BFD010DC016
:1007E000AA1FBB1FEE1FFF1FA217B307E407F507E1
:1007F00020F0A21BB30BE40BF50B661F771F881FBD
:10080000991F1A9469F760957095809590959B0152
:10081000AC01BD01CF010895FB01DC018D91019078
:1008200080190110D9F3990B0895FB01DC010190A7
:0C0830000D920020E1F70895F894FFCF2E
:10083C0045004F0052004C004D6F646F2052656DA7
:10084C006F746F0A004D6F646F204C6F63616C0A9C
:10085C000050574D206F6E0A0050574D206F666642
:02086C000A0080
:00000001FF
